:020000040000FA
:100000000C9485000C94AD000C94AD000C94AD00E4
:100010000C94AD000C94AD000C94AD000C94AD00AC
:100020000C94AD000C94AD000C94AD000C94AD009C
:100030000C94AD000C94AD000C94AD000C94AD008C
:100040000C94CF060C94AD000C949D060C9477068E
:100050000C94AD000C94AD000C94AD000C94AD006C
:100060000C94AD000C94AD00072C7AA5BA6CC59029
:10007000DA3B9365FC8BBC53F810FD3C5692834DE4
:10008000BD879D3AB63DCBC9BF5BBE73DA0FC93F92
:1000900005A84CCDB2D44EB93836A9020C50B9914E
:1000A0008688083CA6AAAA2ABE000000803F00005D
:1000B0000000240027002A0000000000250028007E
:1000C0002B00000000002300260029000404040483
:1000D00004040404020202020202030303030303F2
:1000E00001020408102040800102040810200102CF
:1000F00004081020000000080002010000030407AB
:100100000000000000000000190711241FBECFEFFF
:10011000D8E0DEBFCDBF11E0A0E0B1E0ECE5FEE14C
:1001200002C005900D92A839B107D9F722E0A8E9DD
:10013000B1E001C01D92A739B207E1F710E0C5E8B0
:10014000D0E004C02197FE010E94260FC438D107D9
:10015000C9F70E9470070C942C0F0C940000AF920A
:10016000BF92CF92DF92EF92FF920F931F93CF93A4
:10017000DF936C017B018B01040F151FEB015E0106
:10018000AE18BF08C017D10759F06991D601ED919B
:10019000FC910190F081E02DC6010995892B79F73A
:1001A000C501DF91CF911F910F91FF90EF90DF90EC
:1001B000CF90BF90AF900895FC01538D448D252FB3
:1001C00030E0842F90E0821B930B541710F0CF96F1
:1001D000089501970895FC01918D828D981761F023
:1001E000A28DAE0FBF2FB11D5D968C91928D9F5F3A
:1001F0009F73928F90E008958FEF9FEF0895FC0119
:10020000918D828D981731F0828DE80FF11D858DCB
:1002100090E008958FEF9FEF0895FC01918D228D5E
:10022000892F90E0805C9F4F821B91098F739927E3
:1002300008958EED91E00E940D0121E0892B09F4D3
:1002400020E0822F089580E090E0892B29F00E9421
:10025000190181110C9400000895FC01A48DA80FD0
:10026000B92FB11DA35ABF4F2C91848D90E00196F8
:100270008F739927848FA689B7892C93A089B18918
:100280008C91837080648C93938D848D981306C0B9
:100290000288F389E02D80818F7D80830895EF921D
:1002A000FF920F931F93CF93DF93EC0181E0888F30
:1002B0009B8D8C8D98131AC0E889F989808185FF00
:1002C00015C09FB7F894EE89FF896083E889F989A2
:1002D00080818370806480839FBF81E090E0DF91A4
:1002E000CF911F910F91FF90EF900895F62E0B8DF7
:1002F00010E00F5F1F4F0F731127E02E8C8D8E11B2
:100300000CC00FB607FCFACFE889F989808185FF18
:10031000F5CFCE010E942D01F1CFEB8DEC0FFD2F1B
:10032000F11DE35AFF4FF0829FB7F8940B8FEA89D3
:10033000FB8980818062CFCFCF93DF93EC01888DE2
:100340008823B9F0AA89BB89E889F9898C9185FD50
:1003500003C0808186FD0DC00FB607FCF7CF8C91DE
:1003600085FFF2CF808185FFEDCFCE010E942D0168
:10037000E9CFDF91CF910895833081F028F4813067
:1003800099F08230A9F008958730A9F08830C9F03B
:100390008430B1F4809180008F7D03C08091800013
:1003A0008F7780938000089584B58F7784BD0895FA
:1003B00084B58F7DFBCF8091B0008F778093B000A4
:1003C00008958091B0008F7DF9CF1F93CF93DF9375
:1003D000282F30E0F901EC50FF4F8491F901E052F1
:1003E000FF4FD491F901E453FF4FC491CC23A9F0FE
:1003F000162F81110E94BC01EC2FF0E0EE0FFF1FC1
:10040000E854FF4FA591B4918FB7F894EC91111176
:1004100008C0D095DE23DC938FBFDF91CF911F9171
:100420000895DE2BF8CFCF93DF9390E0FC01E052EC
:10043000FF4F249184539F4FFC0184918823D1F076
:1004400090E0880F991FFC01E255FF4FA591B491F0
:10045000FC01E854FF4FC591D49161110EC09FB7C4
:10046000F8948C91E22FE0958E238C932881E223DF
:10047000E8839FBFDF91CF9108958FB7F894EC91F7
:10048000E22BEC938FBFF6CF8E50806480937C007C
:1004900080917A00806480937A0080917A0086FD52
:1004A000FCCF809178009091790008953FB7F8943F
:1004B00080919D0190919E01A0919F01B091A0011A
:1004C00026B5A89B05C02F3F19F00196A11DB11DAF
:1004D0003FBFBA2FA92F982F8827BC01CD01620FEB
:1004E000711D811D911D42E0660F771F881F991FA6
:1004F0004A95D1F708958F929F92AF92BF92CF9273
:10050000DF92EF92FF920E9456024B015C0180ED58
:10051000C82E87E0D82EE12CF12C0E9456026819D3
:1005200079098A099B09683E734081059105A8F302
:1005300021E0C21AD108E108F10888EE880E83E0B4
:10054000981EA11CB11CC114D104E104F10429F7C7
:10055000FF90EF90DF90CF90BF90AF909F908F90E3
:100560000895089590E080E00895CF93DF93EC0123
:1005700060E08E810E94E50161E08E810E94E501CC
:1005800060E08E810E94E5018BE891E00197F1F730
:10059000DF91CF910895CF92DF92EF92FF920F9368
:1005A0001F93CF93DF936C017C0187E0E80EF11C71
:1005B000D0E0C0E0062F10E0B8010C2E02C0759507
:1005C00067950A94E2F76170F70181917F010E94BB
:1005D000E5012196C430D10579F7C601DF91CF91AD
:1005E0001F910F91FF90EF90DF90CF900C94B50288
:1005F000CF92DF92EF92FF920F931F93CF93DF93EF
:10060000EC01F62E642F8C810E94E5018D818F3FD5
:1006100019F060E00E94E5010F2D10E08F8584FF46
:1006200025C06E0187E0C80ED11CF12CE12CB80169
:100630000E2C02C0759567950A94E2F76170F60179
:1006400081916F010E94E501FFEFEF1AFF0A88E038
:10065000E816F10461F7CE01DF91CF911F910F9160
:10066000FF90EF90DF90CF900C94B502B80184E03A
:10067000759567958A95E1F7CE010E94CB026F2DA3
:10068000CE01DF91CF911F910F91FF90EF90DF90FE
:10069000CF900C94CB0240E0682F8FE792E00C944F
:1006A000F80281E00E944B038BE39FE10197F1F791
:1006B0000895CF93DF93823029F490918E02986051
:1006C00090938E02809392021092930280E4809322
:1006D000940280E18093950280E58093960261E028
:1006E000809183020E941302809184028F3F19F04F
:1006F00061E00E94130261E0809185020E94130272
:10070000CFE7D2E09E012F57324080918E0284FDC8
:100710000BC084E090E021962817390744F461E08B
:100720008E810E941302EECF88E090E0F4CF8BE33D
:100730009DE00197F1F760E0809183020E94E5015E
:1007400060E0809185020E94E501809184028F3FE4
:1007500019F060E00E94E50180918E0284FD34C0B2
:1007600063E08FE792E00E94CB02CBE4D6E4CE01B7
:100770000197F1F763E08FE792E00E94CB022197A7
:10078000F1F763E08FE792E00E94CB0283E592E00D
:100790000197F1F762E08FE792E00E94CB0280912F
:1007A0008E0280620E944B0384E080938F028CE073
:1007B0000E944B030E94510382E08093900286E0E6
:1007C000DF91CF910C944B0380620E944B038BE42A
:1007D00096E40197F1F780918E0280620E944B03AC
:1007E00083E592E00197F1F780918E0280620E948A
:1007F0004B03D5CF90919202891710F08FEF890F9C
:10080000E82FF0E0E158FD4F848980680C944B0399
:1008100041E00E94F80281E090E00895FB01019020
:100820000020E9F73197AF01461B570BDC01ED9132
:10083000FC910280F381E02D09946EE171E08EED70
:1008400091E00C940E048F929F92AF92BF92EF9220
:10085000FF920F931F93CF93DF93CDB7DEB7A1978E
:100860000FB6F894DEBF0FBECDBF7C01FA01CB01FD
:1008700019A2223008F42AE08E010F5D1F4F822E4C
:10088000912CB12CA12CBF01A50194010E94040F51
:10089000F901CA016A300CF5605DD8016E938D01D3
:1008A000232B242B252B79F790E080E0109721F063
:1008B000BD01C7010E940E04A1960FB6F894DEBFD9
:1008C0000FBECDBFDF91CF911F910F91FF90EF90A1
:1008D000BF90AF909F908F900895695CDECF4F924C
:1008E0005F926F927F928F929F92AF92BF92CF92C0
:1008F000DF92EF92FF921F93CF93DF93EC016A0197
:100900007B01822EAB019601CB01B6010E94D60E6F
:1009100061E271E0811126C026013701E89477F881
:100920002FEF3FEF4FE75FE7C301B2010E94D60E02
:1009300081110CC02FEF3FEF4FE75FE7C301B2011A
:100940000E943B0C65E271E0181664F02FEF3FEF58
:100950004FE75FE4C701B6010E941E0E1816A4F40B
:1009600069E271E0CE01DF91CF911F91FF90EF908E
:10097000DF90CF90BF90AF909F908F907F906F90BF
:100980005F904F900C940E042FEF3FEF4FE75FEC1A
:10099000C701B6010E943B0C87FDE2CF20E030E0AA
:1009A000A901C701B6010E943B0CB12CA12C87FF05
:1009B0000DC0E881F9810190F081E02D6DE2CE015A
:1009C00009955C01F7FAF094F7F8F094182D60E0BF
:1009D00070E080E09FE3912C20E030E040E251E4C1
:1009E0000E94450C93949814B8F3A70196010E94B5
:1009F000CF0B2B013C010E94B70C6B017C010E94C4
:100A0000E60C9B01AC01C301B2010E94CE0B2B018D
:100A10003C012AE0B701A601CE010E9423047C011B
:100A2000E881F9810190F081E02D6EE2CE01099517
:100A3000E80EF91EEA0CFB1C115020F120E030E01A
:100A400040E251E4C301B2010E94230E2B013C019C
:100A50000E94B70C4B01B12CA12C2AE0B501A401D6
:100A6000CE010E942304E80EF91EC501B4010E94C4
:100A7000E60C9B01AC01C301B2010E94CE0B2B011D
:100A80003C01DACFC701DF91CF911F91FF90EF902A
:100A9000DF90CF90BF90AF909F908F907F906F909E
:100AA0005F904F9008950C940E044F925F926F9256
:100AB0007F928F929F92AF92BF92CF92DF92EF92EE
:100AC000FF920F931F93CF93DF93CDB7DEB72A9793
:100AD0000FB6F894DEBF0FBECDBF0E94510380E079
:100AE0000E94FA036DE271E08FE792E00E945305E5
:100AF0008FB7F8940091990110919A0120919B0170
:100B000030919C018FBF1A861986C12CD12C760199
:100B1000460157018FB7F8942091990130919A01BD
:100B200040919B0150919C0129833A834B835C83C4
:100B30008FBF82E10E944402BC01990F880B990B80
:100B40000E94E80C2B013C018EE00E944402BC0193
:100B5000990F880B990B0E94E80C6D837E838F831D
:100B6000988789819A81801B910B883E9340CCF4B1
:100B700049855A854F5F5F4F5A874987A301920184
:100B8000C501B4010E94CF0B4B015C012D813E8158
:100B90004F815885C701B6010E94CF0B6B017C01C4
:100BA000B9CF29853A85B901330F880B990B0E947B
:100BB000E80C2B013C01AC019B01C501B4010E9472
:100BC000450C6093D5017093D6018093D701909323
:100BD000D801A3019201C701B6010E94450C6093A0
:100BE000D1017093D2018093D3019093D4016AE331
:100BF00071E08EED91E00E9453054091D501509136
:100C0000D6016091D7017091D80122E030E08EEDDD
:100C100091E00E946F040E941D0466E471E08EED75
:100C200091E00E9453054091D1015091D201609111
:100C3000D3017091D40122E030E08EED91E00E946A
:100C40006F040E941D0482E00E9459030E94510318
:100C500080E00E94FA036AE371E08FE792E00E946D
:100C600053054091D5015091D6016091D701709103
:100C7000D80122E030E08FE792E00E946F0481E02B
:100C80000E94FA0366E471E08FE792E00E94530548
:100C90004091D1015091D2016091D3017091D40162
:100CA00022E030E08FE792E00E946F040E947B0216
:100CB0001092C5011092C6011092C7011092C8018E
:100CC0002A960FB6F894DEBF0FBECDBFDF91CF914D
:100CD0001F910F91FF90EF90DF90CF90BF90AF905A
:100CE0009F908F907F906F905F904F9008951F928C
:100CF0000F920FB60F9211242F933F934F935F9350
:100D00006F937F938F939F93AF93BF93EF93FF93D3
:100D10008EED91E00E942D01FF91EF91BF91AF9177
:100D20009F918F917F916F915F914F913F912F9103
:100D30000F900FBE0F901F9018951F920F920FB635
:100D40000F9211242F938F939F93EF93FF93E09132
:100D5000EE01F091EF018081E091F401F091F50155
:100D600082FD1BC090818091F7018F5F8F7320916E
:100D7000F801821741F0E091F701F0E0E252FE4FF6
:100D8000958F8093F701FF91EF919F918F912F9114
:100D90000F900FBE0F901F9018958081F4CF1F9277
:100DA0000F920FB60F9211242F933F938F939F931F
:100DB000AF93BF938091990190919A01A0919B016B
:100DC000B0919C013091980123E0230F2D3758F505
:100DD0000196A11DB11D20939801809399019093D4
:100DE0009A01A0939B01B0939C0180919D019091E9
:100DF0009E01A0919F01B091A0010196A11DB11D7E
:100E000080939D0190939E01A0939F01B093A001B8
:100E1000BF91AF919F918F913F912F910F900FBEF6
:100E20000F901F90189526E8230F0296A11DB11D63
:100E3000D2CFEEEDF1E01382128288EE93E0A0E0D3
:100E4000B0E084839583A683B78384E091E09183A7
:100E5000808385EC90E09587848784EC90E0978789
:100E6000868780EC90E0918B808B81EC90E0938B77
:100E7000828B82EC90E0958B848B86EC90E0978B54
:100E8000868B118E128E138E148EEFE7F2E0138292
:100E9000128286E191E0918380838DE084838FEFDD
:100EA00085838CE086838BE087838AE0808789E076
:100EB000818788E0828713861486158616861786B2
:100EC00081E00E94590382EB9DE9AFE9BFE3809383
:100ED0007B0290937C02A0937D02B0937E020895E2
:100EE000CF93DF93CDB7DEB760970FB6F894DEBF30
:100EF0000FBECDBF789484B5826084BD84B5816017
:100F000084BD85B5826085BD85B5816085BD8091D4
:100F10006E00816080936E0010928100809181004C
:100F20008260809381008091810081608093810044
:100F3000809180008160809380008091B100846006
:100F40008093B1008091B00081608093B000809167
:100F50007A00846080937A0080917A008260809326
:100F60007A0080917A00816080937A0080917A0083
:100F7000806880937A001092C100E091EE01F091B8
:100F8000EF0182E08083E091EA01F091EB011082B1
:100F9000E091EC01F091ED018FEC80831092F6016D
:100FA000E091F201F091F30186E08083E091F0019D
:100FB000F091F101808180618083E091F001F091F6
:100FC000F101808188608083E091F001F091F1016E
:100FD000808180688083E091F001F091F10180814F
:100FE0008F7D808360E087E00E94130260E082E1F1
:100FF0000E94130260E08EE00E9413020E945505D9
:1010000097EE292E90E0392E03ED10E0EBEFF0E0A3
:101010008491F101E490F801F490FF2079F08111BE
:101020000E94BC01EF2DF0E0EE0FFF1FEE53FF4FCB
:10103000A591B4918C91E82281E009F480E090912F
:10104000DD01813009F091C3911102C08093DD016F
:1010500082E10E9444027C018EE00E9444025C0115
:10106000B701FF0C880B990B0E94E80C2091D50169
:101070003091D6014091D7015091D8010E94CE0BFA
:1010800020917B0230917C0240917D0250917E0242
:101090000E94230E6B017C01C092D901D092DA012B
:1010A000E092DB01F092DC01B501BB0C880B990BDF
:1010B0000E94E80C2091D1013091D2014091D301DE
:1010C0005091D4010E94CE0B21EE33E847E95DE355
:1010D0000E94230E4B015C018092CD019092CE01C3
:1010E000A092CF01B092D0014090C5015090C601AE
:1010F0006090C7017090C801A30192016091C9017D
:101100007091CA018091CB019091CC010E94CE0BCD
:1011100069837A838B839C8320E030E44CE956E436
:101120000E943B0C18160CF444C02091C101309170
:10113000C2014091C3015091C401C701B6010E9490
:101140001E0E87FD14C0C092C101D092C201E09270
:10115000C301F092C4010E9456020E94E60C609303
:10116000BD017093BE018093BF019093C001209197
:10117000B9013091BA014091BB015091BC01C50148
:10118000B4010E941E0E87FD14C08092B901909296
:10119000BA01A092BB01B092BC010E9456020E940B
:1011A000E60C6093B5017093B6018093B7019093FC
:1011B000B80120E030E0A901C301B2010E943B0C5C
:1011C000811141C00E9456020E94E60C6093C50145
:1011D0007093C6018093C7019093C8016093C901C1
:1011E0007093CA018093CB019093CC011092B1010E
:1011F0001092B2011092B3011092B4011092AD019D
:101200001092AE011092AF011092B0011092A9019C
:101210001092AA011092AB011092AC011092A5019C
:101220001092A6011092A7011092A801A0E0B0E0D0
:10123000AB2B09F4EBCE0E941901882309F4E6CE0A
:101240000E940000E3CE4090A5015090A60160905E
:10125000A7017090A8018091B1019091B201A09175
:10126000B301B091B40189879A87AB87BC8780911D
:10127000AD019091AE01A091AF01B091B0018D830D
:101280009E83AF83B8878091A9019091AA01A09114
:10129000AB01B091AC018D879E87AF87B88B20E002
:1012A00034E244E759E469817A818B819C810E9410
:1012B0001E0E87FD04C2C301B2010E94E80C6B013F
:1012C0007C01AC019B0169857A858B859C850E9498
:1012D000450C0E94960E69837A838B839C83A701B9
:1012E00096016D817E818F8198850E94450C0E94B8
:1012F000960E6D837E838F8398872091BD013091F8
:10130000BE014091BF015091C0016091B501709143
:10131000B6018091B7019091B8010E94CE0B20E0F8
:1013200030E44CE156E40E94450C9B01AC010E9464
:10133000CF0B2AED3FE049E450E40E94230E20E069
:1013400030E048E452E40E94230E23E63CED46EFF1
:101350005EE30E94CE0B69877A878B879C872D81FD
:101360003E814F81588569817A818B819C810E9461
:10137000230E4B015C01A70196016D857E858F854B
:1013800098890E94450CA50194010E94450C0E9479
:10139000BD0B6B017C0120E030E0A90169857A85F5
:1013A0008B859C850E941E0E18160CF080C123E6CA
:1013B0003CED46EF5EE3C701B6010E94CE0B0E94F2
:1013C000400C2B013C01A50194010E94230E4B010E
:1013D0005C0162E571E08EED91E00E94530522E030
:1013E00030E049815A816B817C818EED91E00E94D1
:1013F0006F040E941D046AE571E08EED91E00E9489
:10140000530522E030E04D815E816F8178858EED5D
:1014100091E00E946F040E941D0462E671E08EED6F
:1014200091E00E94530522E030E0B501A4018EED69
:1014300091E00E946F040E941D046BE671E08EED46
:1014400091E00E94530522E030E0B301A2018EED4D
:1014500091E00E946F040E941D0461E771E08EED2F
:1014600091E00E945305C090A501D090A601E090A4
:10147000A701F090A8012AE0B701A601F7FE0DC070
:101480006DE28EED91E00E944F0144275527BA018D
:101490004C195D096E097F092AE08EED91E00E94EA
:1014A00023040E941D046FE771E08EED91E00E941D
:1014B000530522E030E049855A856B857C858EEDA9
:1014C00091E00E946F040E941D040E947B0282E052
:1014D0000E9459030E94510380E00E94FA036AE5CA
:1014E00071E08FE792E00E94530523E030E04D81E8
:1014F0005E816F8178858FE792E00E946F0481E0C2
:101500000E94FA0362E571E08FE792E00E945305C2
:1015100023E030E049815A816B817C818FE792E042
:101520000E946F040E947B020E94510380E00E948F
:10153000FA0362E671E08FE792E00E94530523E030
:1015400030E0B501A4018FE792E00E946F0481E0D2
:101550000E94FA036BE671E08FE792E00E94530568
:1015600023E030E0B301A2018FE792E00E946F0414
:101570000E947B020E94510380E00E94FA036EE801
:1015800071E08FE792E00E9453054091A1015091D4
:10159000A2016091A3017091A40123E030E08FE7E4
:1015A00092E00E946F040E947B021092B10110929F
:1015B000B2011092B3011092B4011092AD011092D9
:1015C000AE011092AF011092B0011092A9011092D9
:1015D000AA011092AB011092AC011092A5011092D9
:1015E000A6011092A7011092A8011092C1011092B9
:1015F000C2011092C3011092C4011092B90110925D
:10160000BA011092BB011092BC010E9456026B01FC
:101610007C012AE037ED43E25CE3C501B4010E949E
:101620003B0C20E030E0A90187FD1AC0C701B601DC
:101630000E94E60C2091C5013091C6014091C7017E
:101640005091C8010E94CE0BA50194010E94230E67
:101650002FE036EB48E95FE20E94230E9B01AC01CC
:101660006091A1017091A2018091A3019091A401C8
:101670000E94CF0B6093A1017093A2018093A301FC
:101680009093A4010E9456020E94E60C6093C5014B
:101690007093C6018093C7019093C8016093C901FC
:1016A0007093CA018093CB019093CC01BFCDC70149
:1016B000B601905823E63CED46EF5EE37ECE0E94F5
:1016C00056020E94E60C6093C9017093CA01809390
:1016D000CB019093CC019FEF491A590A690A790A04
:1016E0004092A5015092A6016092A7017092A801B4
:1016F000A5019401C501B4010E94230E29853A85F4
:101700004B855C850E94CF0B6093B1017093B20151
:101710008093B3019093B401A7019601C701B6016C
:101720000E94230E2D813E814F8158850E94CF0B50
:101730006093AD017093AE018093AF019093B001BF
:10174000A5019401C701B6010E94230E2D853E8597
:101750004F8558890E94CF0B6093A9017093AA010D
:101760008093AB019093AC0161CD913009F070CCC6
:101770001092DD010E9455056BCC9F939F770E94CC
:10178000230D0F90002042F49058A2EA2AED3FE08A
:1017900049E450E40E94E60B0C94D00D5058BB274E
:1017A000AA270E94E60B0C94D00D0E94970D38F0EA
:1017B0000E949E0D20F039F49F3F19F426F40C94FA
:1017C0006D0D0EF4E095E7FB0C94670DE92F0E9478
:1017D000F50D58F3BA17620773078407950720F0D1
:1017E00079F4A6F50C94170E0EF4E0950B2EBA2F93
:1017F000A02D0B01B90190010C01CA01A001112417
:10180000FF27591B99F0593F50F4503E68F11A16C2
:10181000F040A22F232F342F4427585FF3CF469553
:1018200037952795A795F0405395C9F77EF41F1675
:10183000BA0B620B730B840BBAF09150A1F0FF0F3F
:10184000BB1F661F771F881FC2F70EC0BA0F621F2B
:10185000731F841F48F4879577956795B795F7951B
:101860009E3F08F0B0CF9395880F08F09927EE0FB0
:101870009795879508950E94430D08F481E0089597
:101880000E94A70DE3950C94E10D0E94590C0C9455
:10189000D00D0E949E0D58F00E94970D40F029F443
:1018A0005F3F29F00C94670D51110C94180E0C94A5
:1018B0006D0D0E94F50D68F39923B1F3552391F353
:1018C000951B550BBB27AA2762177307840738F0AF
:1018D0009F5F5F4F220F331F441FAA1FA9F335D00C
:1018E0000E2E3AF0E0E832D091505040E695001CC0
:1018F000CAF72BD0FE2F29D0660F771F881FBB1F7A
:10190000261737074807AB07B0E809F0BB0B802D57
:10191000BF01FF2793585F4F3AF09E3F510578F083
:101920000C94670D0C94180E5F3FE4F3983ED4F3CB
:10193000869577956795B795F7959F5FC9F7880F57
:10194000911D9695879597F90895E1E0660F771FA9
:10195000881FBB1F621773078407BA0720F0621B3A
:10196000730B840BBA0BEE1F88F7E09508950E9465
:10197000FD0D88F09F5798F0B92F9927B751B0F017
:10198000E1F0660F771F881F991F1AF0BA95C9F703
:1019900014C0B13091F00E94170EB1E008950C947C
:1019A000170E672F782F8827B85F39F0B93FCCF32F
:1019B000869577956795B395D9F73EF49095809580
:1019C000709561957F4F8F4F9F4F0895E89409C0A0
:1019D00097FB3EF490958095709561957F4F8F4F62
:1019E0009F4F9923A9F0F92F96E9BB279395F69578
:1019F000879577956795B795F111F8CFFAF4BB0FF6
:101A000011F460FF1BC06F5F7F4F8F4F9F4F16C059
:101A1000882311F096E911C0772321F09EE8872FE3
:101A2000762F05C0662371F096E8862F70E060E09F
:101A30002AF09A95660F771F881FDAF7880F969518
:101A4000879597F90895DF93CF931F930F938B0199
:101A5000EC01E8E6F0E00E94700D0E94D00D9801C4
:101A6000AE018B01EC0160E070E080E89FE30E9432
:101A7000CE0B0E94960E9801AE010F911F91CF914F
:101A8000DF910C94360E990F0008550FAA0BE0E871
:101A9000FEEF16161706E807F907C0F01216130630
:101AA000E407F50798F0621B730B840B950B39F470
:101AB0000A2661F0232B242B252B21F408950A26D6
:101AC00009F4A140A6958FEF811D811D089597F916
:101AD0009F6780E870E060E008959FEF80EC0895D4
:101AE000DF93CF931F930F93FF92EF92DF927B01CF
:101AF0008C01689406C0DA2EEF010E94360EFE01BA
:101B0000E894A5912591359145915591A6F3EF0162
:101B10000E94E60BFE019701A801DA9469F7DF90B5
:101B2000EF90FF900F911F91CF91DF9108950024C6
:101B30000A941616170618060906089500240A9432
:101B4000121613061406050608950C946D0D0E94D6
:101B5000FD0DD8F3E894E0E0BB279F57F0F02AEDA5
:101B60003FE049EC06C0EE0FBB0F661F771F881FD2
:101B700028F0B23A62077307840728F0B25A620B62
:101B8000730B840BE3959A9572F7803830F49A952D
:101B9000BB0F661F771F881FD2F790480C94DD0E8D
:101BA000092E0394000C11F4882352F0BB0F40F46B
:101BB000BF2B11F460FF04C06F5F7F4F8F4F9F4FAB
:101BC0000895EF93E0FF07C0A2EA2AED3FE049EC59
:101BD0005FEB0E94E60B0E94D00D0F90039401FC76
:101BE0009058E0E9F0E00C94F00E57FD9058440F47
:101BF000551F59F05F3F71F04795880F97FB991F6C
:101C000061F09F3F79F08795089512161306140628
:101C1000551FF2CF4695F1DF08C0161617061806B5
:101C2000991FF1CF86957105610508940895E89490
:101C3000BB2766277727CB0197F908950E94430DAC
:101C400008F48FEF08950E94360E0C94D00D0E9478
:101C5000970D38F00E949E0D20F0952311F00C9402
:101C6000670D0C946D0D11240C94180E0E94F50D47
:101C700070F3959FC1F3950F50E0551F629FF001DF
:101C8000729FBB27F00DB11D639FAA27F00DB11DF8
:101C9000AA1F649F6627B00DA11D661F829F222781
:101CA000B00DA11D621F739FB00DA11D621F839F08
:101CB000A00D611D221F749F3327A00D611D231FDE
:101CC000849F600D211D822F762F6A2F11249F572C
:101CD00050409AF0F1F088234AF0EE0FFF1FBB1F2F
:101CE000661F771F881F91505040A9F79E3F5105EE
:101CF00080F00C94670D0C94180E5F3FE4F3983E4F
:101D0000D4F3869577956795B795F795E7959F5F97
:101D1000C1F7FE2B880F911D9695879597F9089529
:101D200019F416F40C946D0D0C94DB0E0E94FD0D4D
:101D3000B8F39923C9F3B6F39F57550B87FF0E9459
:101D4000E90E0024A0E640EA900180585695979548
:101D500028F4805C660F771F881F20F0261737074E
:101D6000480730F4621B730B840B202931294A2B5E
:101D7000A69517940794202531254A2758F7660F12
:101D8000771F881F20F026173707480730F4620BAB
:101D9000730B840B200D311D411DA09581F7B901F6
:101DA000842F9158880F9695879508950E94430D2A
:101DB000880B990B08959F3F31F0915020F487953F
:101DC00077956795B795880F911D9695879597F9A3
:101DD000089591505040660F771F881FD2F70895DD
:101DE0009F938F937F936F93FF93EF939B01AC012E
:101DF0000E94230EEF91FF910E94700D2F913F9151
:101E00004F915F910C94230EA1E21A2EAA1BBB1BCB
:101E1000FD010DC0AA1FBB1FEE1FFF1FA217B307B6
:101E2000E407F50720F0A21BB30BE40BF50B661FCC
:101E3000771F881F991F1A9469F760957095809590
:101E400090959B01AC01BD01CF010895EE0FFF1FDE
:101E50000590F491E02D0994F894FFCF0000000064
:101E60004F01AF00DC009C010D01EB00FF00000002
:101E700000000804AF00B202B1020D0A006E616EEC
:101E800000696E66006F76660043616C696272611C
:101E900074696E67210056204F6666736574203D35
:101EA000200049204F6666736574203D200049720A
:101EB0006D73203D200056726D73203D2000506FE1
:101EC000776572203D20005046203D20004E756D04
:101ED00073616D706C6573203D200050686173659F
:101EE000205368696674203D2000456E65726779ED
:041EF000203D200071
:107E0000112484B714BE81FFF0D085E080938100F7
:107E100082E08093C00088E18093C10086E0809377
:107E2000C20080E18093C4008EE0C9D0259A86E02C
:107E300020E33CEF91E0309385002093840096BBD3
:107E4000B09BFECF1D9AA8958150A9F7CC24DD24C4
:107E500088248394B5E0AB2EA1E19A2EF3E0BF2EE7
:107E6000A2D0813461F49FD0082FAFD0023811F036
:107E7000013811F484E001C083E08DD089C08234E0
:107E800011F484E103C0853419F485E0A6D080C0E4
:107E9000853579F488D0E82EFF2485D0082F10E0AE
:107EA000102F00270E291F29000F111F8ED06801E7
:107EB0006FC0863521F484E090D080E0DECF843638
:107EC00009F040C070D06FD0082F6DD080E0C81688
:107ED00080E7D80618F4F601B7BEE895C0E0D1E017
:107EE00062D089930C17E1F7F0E0CF16F0E7DF06D8
:107EF00018F0F601B7BEE89568D007B600FCFDCFD4
:107F0000A601A0E0B1E02C9130E011968C91119780
:107F100090E0982F8827822B932B1296FA010C0160
:107F200087BEE89511244E5F5F4FF1E0A038BF0790
:107F300051F7F601A7BEE89507B600FCFDCF97BE46
:107F4000E89526C08437B1F42ED02DD0F82E2BD052
:107F50003CD0F601EF2C8F010F5F1F4F84911BD097
:107F6000EA94F801C1F70894C11CD11CFA94CF0C13
:107F7000D11C0EC0853739F428D08EE10CD085E9AC
:107F80000AD08FE07ACF813511F488E018D01DD067
:107F900080E101D065CF982F8091C00085FFFCCF94
:107FA0009093C60008958091C00087FFFCCF809118
:107FB000C00084FD01C0A8958091C6000895E0E648
:107FC000F0E098E1908380830895EDDF803219F02E
:107FD00088E0F5DFFFCF84E1DECF1F93182FE3DFCA
:107FE0001150E9F7F2DF1F91089580E0E8DFEE27F6
:047FF000FF270994CA
:027FFE00040479
:00000001FF
